:10000000020915E924B0FFE4FD120016E4FDFF1219
:100010000016E4FD7F10ED6003020D45120D37223E
:100023000206EDE549243DF8E6054922783A301009
:1000330002783DE475F0011206B70205D62009EBFC
:100043007F2ED2098018EF540F2490D43440D4FF6C
:10005300300D0BEF24BFB41A0050032461FFE54AAF
:100063006002154A054DE54D7002054C30100D78C0
:100073003AE475F0011206B7EF0206A5020D6074AB
:1000830003D2108003E4C210F5498B3A8A3B893CC2
:10009300E4F54AF54CF54DE54A60077F201200610F
:1000A30080F5754BFFC20AC209C20BC20CC20EC255
:1000B3000FC21112002FFF700D3010057F001200C8
:1000C30072AF4DAE4C22B4255FC2D5C20D12002FC4
:1000D300FF24D0B40A00501A75F00A784A30D505C7
:1000E30008B6FF0106C6A426F620D5047002D20C7A
:1000F30080D924CFB41A00EF5004C2E5D20D020216
:1001030072D20A80C6D20980C0D20B80BCD2D580FD
:10011300BAD20E80B47F20120061200B077401B5A0
:100123004A0040F1120026FF12006102009AD21128
:10013300D20F8095120026FB120026FA120026F930
:100143004A4B700679437A037BFF200B2EE54A6006
:100153002A7E008E827583001205EF60060EEE651F
:100163004B70F0C2D5EBC0E0EAC0E0E9C0E0EE12AC
:1001730002B9D0E0F9D0E0FAD0E0FB1205D6FF6077
:10018300AAEBC0E0EAC0E0E9C0E0120061D0E024DD
:1001930001F9D0E03400FAD0E0FBE54B0460DCD594
:1001A3004BD980877BFF7A0279B5D20B809C79107B
:1001B30080027908C20FC2118008D2D5790A80045F
:1001C300790AC2D5E54B047002F54BE4FAFDFEFF54
:1001D300120026FC7B08200A13120026FD7B103038
:1001E300090A120026FE120026FF7B20EC3382D57B
:1001F30092D55013C3E43009069FFFE49EFEE4202A
:100203000A039DFDE49CFCE4CBF8C20AEC700CCF1E
:10021300CECDCCE824F8F870F38017C3EF33FFEEAC
:1002230033FEED33FDEC33FCEB33FB994002FB0F64
:10023300D8E9EB300A05F8D0E0C448B20AC0E00AB6
:10024300EC4D4E4F78207B0070C2EAB54B0040BCAA
:10025300C0E01202BBD0F0D0E0200A04C4C0E0C466
:10026300B20AC0F012004AD0F0D5F0EB02009A12A5
:1002730006C701375301B15801084C01044201B5C7
:100283004F01BD4401BD49011D4301C35501A746AB
:1002930001A74501A747036350010C2D01102E014F
:1002A300332B011423013120034C2A00CC480000D6
:1002B300012B3F3F3F00790AA2D5200C14300E09D1
:1002C300B910020404B9080104A2D5200F02500199
:1002D30004200B68920BB54A005034C0E07F2030F5
:1002E3000C197F30A20B720F720E500F120312C241
:1002F3000BC20FC20EC2117F30800F300E03E9C054
:10030300E0120061300E03D0E0F9D0E0B54ACC3002
:100313000E177F30B9100C1200617F58300D077F24
:10032300788003B90803120061300B057F2D0200AA
:10033300617F202011F87F2B200FF322920B80CFB7
:10034300286E756C6C2900D20A120026300AF8C296
:100353000A784A30D50108F60200CC2D504349589B
:100363001200262403B405004001E490035E9312B7
:100373000052743A120052D20C754A040201B1EFD2
:10038300D3940740037F01221205D6FED394034082
:10039300037F0222EF7041EE700B9000011205EF14
:1003A300F4529352941205D6B4010B900001120536
:1003B300EF4293F452941205D6FEB4020A90000160
:1003C3001205EF42934294EEB4030D90000112051F
:1003D300EFFEF45293EE4294EF640170431205D69C
:1003E300FE700B9000011205EFF452915292EEB49D
:1003F300010B9000011205EF4291F452921205D6BF
:10040300B4020A9000011205EF429142921205D6FE
:10041300B4030D9000011205EFFEF45291EE4292E7
:10042300EF640270431205D6FE700B9000011205B3
:10043300EFF452955296EEB4010B9000011205EFC2
:100443004295F452961205D6B4020A9000011205A1
:10045300EF429542961205D6B4030D9000011205A2
:10046300EFFEF45295EE4296EF640370431205D605
:10047300FE700B9000011205EFF452B152B2EEB4CC
:10048300010B9000011205EF42B1F452B21205D6EE
:10049300B4020A9000011205EF42B142B21205D62E
:1004A300B4030D9000011205EFFEF452B1EE42B217
:1004B300EF640470431205D6FE700B900001120521
:1004C300EFF452B352B4EEB4010B9000011205EFF6
:1004D30042B3F452B41205D6B4020A9000011205D5
:1004E300EF42B342B41205D6B4030D9000011205D6
:1004F300EFFEF452B3EE42B4EF640570431205D637
:10050300FE700B9000011205EFF452C952CAEEB40B
:10051300010B9000011205EF42C9F452CA1205D62D
:10052300B4020A9000011205EF42C942CA1205D66D
:10053300B4030D9000011205EFFEF452C9EE42CA56
:10054300EF640670431205D6FE700B90000112058E
:10055300EFF452CB52CCEEB4010B9000011205EF35
:1005630042CBF452CC1205D6B4020A900001120514
:10057300EF42CB42CC1205D6B4030D900001120515
:10058300EFFEF452CBEE42CCEF640770431205D674
:10059300FF700B9000011205EFF452E152E2EFB449
:1005A300010B9000011205EF42E1F452E21205D66D
:1005B300B4020A9000011205EF42E142E21205D6AD
:1005C300B4030D9000011205EFFFF452E1EF42E294
:1005D3007F0022BB010689828A83E0225002E72240
:1005E300BBFE02E32289828A83E49322BB010CE5EA
:1005F3008229F582E5833AF583E0225006E92582D4
:10060300F8E622BBFE06E92582F8E222E58229F517
:1006130082E5833AF583E49322F8BB010DE5822951
:10062300F582E5833AF583E8F0225006E92582C88E
:10063300F622BBFE05E92582C8F222EF8DF0A4A8BD
:10064300F0CF8CF0A428CE8DF0A42EFE22BC000B9C
:10065300BE0029EF8DF084FFADF022E4CCF875F0F5
:1006630008EF2FFFEE33FEEC33FCEE9DEC984005D4
:10067300FCEE9DFE0FD5F0E9E4CEFD22EDF8F5F09A
:10068300EE8420D21CFEADF075F008EF2FFFED33A2
:10069300FD4007985006D5F0F222C398FD0FD5F020
:1006A300EA22BB010689828A83F0225002F722BB29
:1006B300FE01F322FAE6FB0808E6F925F0F618E650
:1006C300CA3AF622D083D082F8E49370127401936D
:1006D300700DA3A393F8740193F5828883E4737474
:1006E30002936860EFA3A3A380DFC0E0C0F0C083E0
:1006F300C082C0D075D000C000C001C002C003C01A
:1007030004C005C006C007209803020794C298AF2F
:1007130099EF640A6011744E2570F8A6070570E519
:10072300707002056F806A756F00757000E54E2466
:10073300B5601724FC604124E36048242070527B99
:10074300007A00794E120A0F80477B007A00794EB7
:10075300120AC08F6E7BFF7A0B79471200887BFFEA
:100763007A0B794B854F3D1200887BFF7A0B794ECC
:10077300856E3D12008880197B007A00794E120A3B
:100783006B800E7B007A00794E120C0D8F6E120B6C
:10079300D3D007D006D005D004D003D002D001D0E7
:1007A30000D0D0D082D083D0F0D0E0328F418D42C0
:1007B300E4F545F9EB24E0F545E541D3947F4007A3
:1007C300E4F54105420542E54464107061AD42AF72
:1007D30041120CABE4F975F010E545A429F582E468
:1007E30035F0F583E58224AEF582E583340FF58396
:1007F300E493FF7D0112001609B908DAE54204FD0E
:10080300AF41120CABE4F975F010E545A429F5826C
:10081300E435F0F583E58224B6F582E583340FF5FC
:1008230083E493FF7D0112001609B908DA22E54437
:10083300640C702FAD42AF41120CABE4F975F006B6
:10084300E545A42486F582E5F0340DF583E5822998
:10085300F582E43583F583E493FF7D0112001609E5
:10086300B906DA22E4FD7FAE120009E4FD7F4012EF
:100873000016E4FD7FB0120016E4FD7F811200161E
:10088300E4FD7FFF120016E4FD7FA1120016E4FDD4
:100893007FA6120016E4FD7FA8120016E4FD7F3F39
:1008A300120016E4FD7FC8120016E4FD7FD3120088
:1008B30016E4FDFF120016E4FD7FD5120016E4FDD9
:1008C3007F80120016E4FD7FD8120016E4FD7F0539
:1008D300120016E4FD7FD9120016E4FD7FF1120029
:1008E30016E4FD7FDA120016E4FD7F12120016E40F
:1008F300FD7FDB120016E4FD7F30120016E4FD7F5E
:100903008D120016E4FD7F14120016E4FD7FAF0282
:100913000016787FE4F6D8FD75817002095C020B3E
:1009230053E493A3F8E493A34003F68001F208DFB2
:10093300F48029E493A3F85407240CC8C333C454A4
:100943000F4420C8834004F456800146F6DFE48058
:100953000B0102040810204080900D6CE47E01938B
:1009630060BCA3FF543F30E509541FFEE493A3602A
:10097300010ECF54C025E060A840B8E493A3FAE485
:1009830093A3F8E493A3C8C582C8CAC583CAF0A3D6
:10099300C8C582C8CAC583CADFE9DEE780BE753A27
:1009A30003753B807B007A00793A7F0212038275DC
:1009B3003B807B007A00793A7F03120382753B2EDA
:1009C3007B007A00793A7F04120382753A02753B01
:1009D300407B007A00793A7F04120382753A0375EB
:1009E3003B077B007A00793A7F07120382753A014D
:1009F300753B7C7B007A00793A7F03120382753B57
:100A0300037B007A00793A7F050203828B238A24D1
:100A130089259000011205EFFFB4482290000212CD
:100A230005EF24CF600E14600F1460102403700EC2
:100A3300D2B7800AD2C18006D2C28002D2C3EFB439
:100A43004C25AB23AA24A9259000021205EF24CF3D
:100A5300600D14600D14600D2403700BC2B722C225
:100A6300C122C2C222C2C3228B238A248925120C2B
:100A73000D8F26AB23AA24A9259000041205EF2489
:100A8300D0F527E4FFEF2405F582E433F583AB23A8
:100A9300AA24A9251205EF8F8275830012061C0F65
:100AA300BF1BE2120CCD7F0A7E00120D01AB23AAFD
:100AB30024A925753F0CAD27AF26020B93900001A7
:100AC3001205EF24D0B407005041900ADB75F00300
:100AD300A4C58325F0C58373020AF0020AF4020A4F
:100AE300F8020AFC020B00020B04020B08A2B280FC
:100AF30016A2B38012A2B4800EA2C8800AA2C98033
:100B030006A2B58002A2B6E433FF227F02220D0AB9
:100B1300535443313557344B343853340D0A5561EC
:100B2300727431205465737420210D0A007561724B
:100B3300743120746573743232004D637550797467
:100B4300686F6E004B45590025630025640D0A004C
:100B5300E4F538F5391209A1120C887BFF7A0B7979
:100B630011120088120867120CCDD2AF7BFF7A0BEB
:100B730079307D0C7C00120C3B7F0F120BD37BFF73
:100B83007A0B793D753F0C7D067F06120B9380FE31
:100B93008F3A8D3B8B3C8A3D893EE4F540AB3CAAC2
:100BA3003DA93E8540827583001205EFFB602085D9
:100BB3003F44AD3BAF3A1207AF7408253AF53AD339
:100BC30094784007E4F53A053B053B054080CE2287
:100BD300AD07E4FC74807E00A804088006CEA2E77B
:100BE30013CE13D8F8FFEDFBEF5B6004D2F880025D
:100BF300C2F8C2FA120D7ED2FA120D7E0CBC08D4D2
:100C0300D2F9120D7EC2F9020D7EE4FFFEEEF582EB
:100C1300758300A31205EFFDC394304016EDD39402
:100C2300395010ED24D0FD74082EF8E6FCED8CF05D
:100C3300A42FFF0EBE03D6228B3A8A3B893CED4C90
:100C4300601CAB3A053CE53CAA3B7002053B14F93A
:100C53001205D6FF120D76ED1D70E31C80E022AA6B
:100C630007120D287F78AD07E4FBED30E704D2C609
:100C73008002C2C6120D17C2C5120D19ED25E0FD83
:100C83000BBB08E622E5A2543FF5A2E598543F4486
:100C930040F59875D7E875D6FF758E14438E01D24B
:100CA300BCD2ACD29CD2AF22A907ED24B0FFE4FDA5
:100CB300120016E954F0C4540F4410FFE4FD12006F
:100CC30016E9540FFFE4FD020016E4F9120003E4F1
:100CD300F53A7D01E4FF120016053AE53AC3948024
:100CE30040F009B908E622120C69120CF5AF0212A2
:100CF3000C69120D17C2C57F017E00020D1DEF1F87
:100D0300AA0670011E4A600BE4FDEDC3947B50EE0E
:100D13000D80F722D2C57F017E00EF1FAC06700164
:100D23001E4C70F622D2C5D2C6120D19C2C6120DC0
:100D330019C2C522120C62120CF5E4FF120CEA026E
:100D43000D53120C62120CF57F40120CEA020D5384
:100D5300C2C5C2C6120D19120D17D2C622C2AC8F5C
:100D6300993099FDC299D2AC22026F000003086446
:100D73000A01008F993099FDC29922E4FF0FBF64E5
:100D8300FC00220000000000000000002F00000013
:100D9300000700070000147F147F1400242A7F2A11
:100DA30012006264081323003649552250000005DF
:100DB30003000000001C224100000041221C00002F
:100DC30014083E08140008083E0808000000A0604C
:100DD30000000808080808000060600000002010F8
:100DE300080402003E5149453E0000427F40000096
:100DF3004261514946002141454B31001814127F8D
:100E030010002745454539003C4A494930000171E6
:100E130009050300364949493600064949291E0098
:100E23000036360000000056360000000814224148
:100E330000001414141414000041221408000201C9
:100E430051090600324959513E007C1211127C00AF
:100E53007F49494936003E41414122007F414122B9
:100E63001C007F49494941007F09090901003E41AE
:100E730049497A007F0808087F0000417F4100004C
:100E83002040413F01007F08142241007F40404041
:100E930040007F020C027F007F0408107F003E4168
:100EA30041413E007F09090906003E4151215E0090
:100EB3007F091929460046494949310001017F014B
:100EC30001003F4040403F001F2040201F003F40A3
:100ED30038403F00631408146300070870080700D4
:100EE300615149454300007F41410000552A552A7D
:100EF30055000041417F000004020102040040400C
:100F03004040400000010204000020545454780083
:100F13007F4844443800384444442000384444481B
:100F23007F00385454541800087E0901020018A4A5
:100F3300A4A47C007F080404780000447D400000E2
:100F43004080847D00007F102844000000417F40E2
:100F530000007C04180478007C08040478003844FA
:100F630044443800FC242424180018242418FC00CA
:100F73007C0804040800485454542000043F4440AF
:100F830020003C4040207C001C2040201C003C40B2
:100F930030403C004428102844001CA0A0A07C0042
:100FA3004464544C4414141414141400000000003A
:100FB3000000000000000000000000000000F80036
:100FC300000000000000333000000000100C061089
:100FD3000C0600000000000000000040C07840C084
:100FE300784000043F04043F040400007088FC08B8
:100FF300300000001820FF211E0000F008F000E080
:1010030018000000211C031E211E0000F008887038
:101013000000001E2123241927211010160E0000A2
:101023000000000000000000000000000000E018C5
:10103300040200000000071820400000020418E02A
:101043000000000040201807000000404080F080AE
:101053004040000202010F01020200000000F00004
:101063000000000101011F01010100000000000058
:1010730000000080B07000000000000000000000CD
:101083000000000001010101010101000000000056
:10109300000000003030000000000000000000806D
:1010A300601804006018060100000000E010080842
:1010B30010E000000F102020100F00001010F800A7
:1010C3000000000020203F202000000070080808D6
:1010D30088700000302824222130000030088888DE
:1010E3004830000018202020110E000000C02010FE
:1010F300F8000000070424243F240000F80888882F
:101103000808000019212020110E0000E010888833
:10111300180000000F112020110E0000380808C825
:101123003808000000003F00000000007088080835
:10113300887000001C222121221C0000E0100808F6
:1011430010E0000000312222110F00000000C0C097
:1011530000000000000030300000000000008000AC
:1011630000000000008060000000000000804020BC
:1011730010080000010204081020004040404040D5
:101183004040000404040404040400000810204048
:1011930080000000201008040201000070480808C5
:1011A30008F0000000003036010000C030C828E815
:1011B30010E0000718272423140B000000C038E0B8
:1011C300000000203C23020227382008F888888882
:1011D300700000203F202020110E00C030080808B6
:1011E300083800071820202010080008F80808080D
:1011F30010E000203F202020100F0008F88888E826
:10120300081000203F20202320180008F88888E8D1
:10121300081000203F200003000000C03008080829
:1012230038000007182020221E020008F8080000DA
:1012330008F808203F210101213F20000808F80891
:101243000800000020203F2020000000000808F8CC
:10125300080800C08080807F00000008F888C0284C
:10126300180800203F20012638200008F808000055
:10127300000000203F20202020300008F8F800F86C
:10128300F80800203F003F003F200008F830C0006E
:1012930008F808203F200007183F00E0100808085E
:1012A30010E0000F10202020100F0008F808080895
:1012B30008F000203F210101010000E010080808A8
:1012C30010E0000F18242438504F0008F88888884D
:1012D300887000203F2000030C302000708808082D
:1012E3000838000038202121221C00180808F808BB
:1012F3000818000000203F2000000008F808000044
:1013030008F808001F202020201F0008788800000C
:10131300C83808000007380E010000F80800F8007C
:1013230008F800033C0700073C03000818688080A6
:1013330068180820302C03032C30200838C800C854
:101343003808000000203F2000000010080808C8EB
:101353003808002038262120201800000000FE0253
:101363000202000000007F40404000000C30C0003B
:10137300000000000000010638C00000020202FE67
:10138300000000004040407F000000000004020213
:101393000204000000000000000000000000000044
:1013A3000000008080808080808080000202040032
:1013B30000000000000000000000000000808080AA
:1013C3008000000019242222223F2008F800808098
:1013D300000000003F112020110E0000000080805B
:1013E300800000000E1120202011000000008080EA
:1013F30088F800000E112020103F2000008080801C
:10140300800000001F222222221300008080F08827
:101413008888180020203F20200000000080808062
:10142300808000006B94949493600008F80080809F
:10143300800000203F210000203F2000809898007A
:101443000000000020203F202000000000008098C2
:1014530098000000C08080807F000008F8000080B2
:10146300808000203F24022D302000000808F8006F
:101473000000000020203F2020000080808080802A
:10148300808000203F20003F20003F80800080803C
:10149300800000203F210000203F2000008080804A
:1014A300800000001F202020201F008080008080FB
:1014B30000000080FFA12020110E000000008080AA
:1014C300808000000E112020A0FF8080808000809B
:1014D30080800020203F21200001000000808080C8
:1014E3008080000033242424241900008080E080BD
:1014F3008000000000001F2020000080800000000A
:10150300808000001F202020103F2080808000006A
:1015130080808000010E300806010080800080007A
:101523008080800F300C030C300F0000808000801F
:101533008080000020312E0E31200080808000004A
:1015430080808080818E70180601000080808080FA
:101553008080000021302C22213000000000008018
:101563007C020200000000003F404000000000FF3A
:1015730000000000000000FF0000000002027C8069
:101583000000000040403F0000000000060101028F
:1015930002040400000000000000000020202020BE
:1015A300FF000000FF402010080000206020101002
:1015B300FF0000003F404040407800040404E4245E
:1015C300242526242424E4040404000040201B02D0
:1015D30042827E0202020B10600000000808884865
:1015E3002818FF18284888080800008242310000A4
:1015F3001060071060000011E202004020D04C434D
:1016030044C8102000F80000FF000000003F4044E1
:1016130048474070000F40807F000000404048482A
:10162300C809FAC4008040201000002020100806DA
:1016330041807F000304081020200000E000FF1019
:101643002002F29292929292F20200010000FF00B5
:1016530000404F44444444444F40002424A4FEA388
:10166300220022CC0000FF00000000080601FF005A
:10167300010404040404FF02020200101010FF100E
:101683009008888888FF88888808000444827F013E
:10169300808040432C102846818000080493929652
:1016A3009A92FA94939296FA0202004040472424B5
:1016B300140CFF04042444241C00008080808080D8
:1016C3008080808080808080808000000000000017
:1016D3000000000000000000000000008060F80728
:1016E3002020207FA0101116101000010000FF0021
:1016F30000000000030C102040F8000000F8494AE5
:101703004C48F8484C4A49F80000001010131212D4
:101713001212FF1212121213101000000000FE200A
:10172300202020203F2020202000000080601F0276
:101733000202020202FE00000000001010D0FF901F
:101743001000FE020202FE00000000040300FF007E
:1017530083601F0000003F404078000000FC040449
:1017630004040404040404FC00000000007F20209F
:10177300202020202020207F000000100804FE01EC
:101783000888080F18254684E40400222212120A4E
:10179300FE42270A1222324A4242001010D0FF9022
:1017A3001000FE020202FE00000000040300FF001E
:1017B30083601F0000003F40407800000202C20225
:1017C3000202FE82828282820200004040407F4009
:1017D30040407F4040404040404000080888C838AF
:1017E3000C0B0808E8080808080800020100FF407D
:1017F300414141417F41414141400080828282FE1B
:101803008282828282FE8282828000008040300F48
:101813000000000000FF00000000001010D0FF9047
:101823001000FE020202FE00000000040300FF009D
:0B18330083601F0000003F4040780071
:00000001FF
